:1000000006308A00402E00000A108A100A1182076A
:1000100028340C3401340634F4326D383110F632A1
:10002000203AE536701900006537F43272102A1054
:10003000E6377210F3327400F4326D3831106537E0
:10004000F43272102A00F4326D3832106537F4320F
:1000500072102A00E334EB34F3110001F230EB307C
:10006000ED180001F230EB306D190001F230EB3089
:10007000ED1800016537F43272336F39EE3A6D19BD
:1000800020158000F230EB306D190001F230EB30BA
:10009000ED1800016537F43272336F39EE3A6D199D
:1000A00020150001F230EB30ED180001E334EB34A1
:1000B000F3110001D024CE2FC218A01EA0180001F9
:1000C000D024CE2F4219A01EA0180001F4326D38A2
:1000D0003100CC34ED347400F4326D383100CC345E
:1000E000ED347400F4326D383200CC34ED347400E9
:1000F000F4326D383100CC34ED3474003230840089
:1001000083130008031992280130F800F701F70B58
:100110008728F80B86284A30F700F70B8D2890289F
:10012000800B84280800390EF039F7000F300805DD
:1001300077048800000008149D28081008000808AB
:10014000F700080E0F39F800080083160810881011
:100150000811831288100F3083160805F0388800C4
:10016000831208150000081400009F207808B900C9
:1001700008100000081400009F207808B80008103C
:100180000F308316080588008312390EF700F0300F
:10019000F70577083804F8007808B800B81BAB28D2
:1001A000361C88103618881400000811000008104A
:1001B000370EB8000F30B8053808B900932037085B
:1001C0000F39B800B900932008000F3083160805D6
:1001D0008800081088100811831288100811081070
:1001E0000F30B2007E200130A7002708033C031C1B
:1001F00001290330B90093200530B2007E20A70A00
:10020000F5280230B90093200530B2007E20A70106
:100210002708033C031C152927080420A800B60161
:100220002808B700A520A70A08298A110A126D2EEE
:100230002030F8001F08C73978049F000630F70007
:10024000F70B202900001F151F19242983161E08EB
:100250008312AA0003101E0CFA002A0CF900A10058
:100260002108F80008000830F8001F08C739780492
:100270009F000630F700F70B3B2900001F151F19E0
:100280003F2983161E088312AA0003101E0CFA00D1
:100290002A0CF900A2002208F80008000030A6008D
:1002A000831687018312870126102608831687008C
:1002B0008312071426162608831687008312071E4A
:1002C00066291430B2007E200730A000A61626084A
:1002D000831687008312871E72291430B2007E2095
:1002E0000830A00026172608831687008312071FF0
:1002F0007E291430B2007E200930A000A6172608FF
:10030000831687008312871F8E290230AA00963039
:10031000B2007E20AA0B87294130A00026102608B3
:100320008316870083120710A610260883168700FD
:100330008312871426162608831687008312071E49
:10034000A6291430B2007E200430A000A61626088C
:10035000831687008312871EB2291430B2007E20D4
:100360000530A00026172608831687008312071F72
:10037000BE291430B2007E200630A000A617260841
:10038000831687008312871FCA291430B2007E208B
:100390004230A000A610260883168700831287101B
:1003A00026112608831687008312071526162608AD
:1003B000831687008312071EE2291430B2007E20C4
:1003C0000130A000A6162608831687008312871E18
:1003D000EE291430B2007E200230A0002617260835
:1003E000831687008312071FFA291430B2007E207B
:1003F0000330A000A6172608831687008312871FE4
:10040000062A1430B2007E204330A00026112608B0
:100410008316870083120711A6112608831687000A
:100420008312871526162608831687008312071E57
:100430001E2A1430B2007E202A30A000A6162608FC
:10044000831687008312871E292A1430B2007E206B
:10045000A00126172608831687008312071F352A56
:100460001430B2007E202330A000A6172608831681
:1004700087008312871F412A1430B2007E20443047
:10048000A000A61126088316870083128711200872
:10049000F8000800330B4D2A502A4030B400512A8E
:1004A000B40101303202B40734088038B500B60117
:1004B0003508B700A52008003108073A03196A2A51
:1004C0000B3A03196F2A063A0319772A023A0319DD
:1004D0007D2A822A0130B200B3004A22872AB6015F
:1004E0000130B700A5200230B2007E20872A0130FB
:1004F000B2000230B3004A22872AB6011030B7009A
:10050000A520872A0130B6003108B700A5200800D1
:100510000B08AA008B13831603178C170C1400000A
:10052000000083120C087F390319CF2A0313AB0094
:1005300003170D080313AC0003170F080313AD00D6
:100540002B08B1005C222C0803178D0003132D0823
:1005500003178F0083168C170C1400000000831201
:100560000C0D0E0D7F390319CF2A0313AB000317AF
:100570000D080313AC0003170F080313AD002B087D
:10058000B1005C222C0803178D0003132D080317FC
:100590008F008D0A03198F0A03138B2A0317031385
:1005A000AA1B8B1708003208F80131020318DB2A56
:1005B0003108F700E72AF7010830B300B10DF70D55
:1005C000320877020318F700F80DB30BDE2A080093
:1005D00020302C1E3030AD002B08F700AB1FF82A5E
:1005E000F709F70A7708AB002D30AD00AC172C14D3
:1005F0002B08B1006430B200D3227708AB00303052
:100600007807AE002B08B1000A30B200D322303098
:100610007707B00030307807AF002D08F700303092
:100620002E020319172BAC14AC1B2C152B2B2D08E9
:10063000AE002030AD0030302F020319232B2C14D4
:10064000AC1BAC142B2B031D2C14031D2B2B2E08C1
:10065000AF002030AE002C19322BAC18352B2C18E3
:10066000382B3B2B2D08B1005C222E08B1005C22F8
:100670002F08B1005C223008B1005C220800F701AD
:10068000F8012A0803102B18F707F70CF80CAB1821
:10069000F707F70CF80C2B19F707F70CF80CAB1948
:1006A000F707F70CF80C2B1AF707F70CF80CAB1A36
:1006B000F707F70CF80C2B1BF707F70CF80CAB1B24
:1006C000F707F70CF80C0800831605168312051EB1
:1006D000362E182133214E214E21F808031D872B79
:1006E0000130B200B3004A220C3003178D000030F5
:1006F0008F00031388220130B2000230B3004A2277
:10070000143003178D0000308F00031388224E2110
:1007100078082A3C031DEA2C0C30B1005C22A701AA
:10072000A801A001A9014E217808233C0319EA2C55
:100730004E217808A900A708031DB52B2808023C04
:100740000319B52B2808033C0319B52B2808043CD2
:100750000319B52B0130B200B3004A221C30031735
:100760008D0000308F00031388222808023C031DEF
:10077000D42B2708023C0319D42B0130B200B3005C
:100780004A22233003178D0000308F000313882284
:100790000130B2000230B3004A222A3003178D0024
:1007A00000308F0003138822270BD72BDB2B280860
:1007B000033C031DE82B0130B2000230B3004A2293
:1007C0002E3003178D0000308F0003138822FC2B7E
:1007D0002708023C0319F02B2808043C031DFC2BBE
:1007E0000130B2000230B3004A22323003178D00CC
:1007F00000308F00031388220A30B2007E202908BF
:100800002A3C031D062CA70AA80AA0012808033CBD
:1008100003190D2C2808043C0319A70129082A3CB8
:100820000319142C2908A400A9080319412C29082C
:10083000083C031C412C270B412C2908A300A001D4
:100840000130B2000230B3004A22363003178D0067
:1008500000308F00031388220830B2000230B3004A
:100860004A222308AB001830AC00E8220130B20065
:10087000B3004A223A3003178D0000308F00031373
:100880008822A9080319742C2908083C031C742C1D
:100890002708023C031D742C2308AA000A30AB0071
:1008A0003F2324087807A3000130B2000230B300D0
:1008B0004A22423003178D0000308F000313882234
:1008C0000830B2000230B3004A222308AB001830CF
:1008D000AC00E822A701A0010130B2000230B30051
:1008E0004A220C30B1005C22A9080319A32C290864
:1008F000083C031CA32C2808033C031DA32C290837
:10090000A500A0010130B2000230B3004A224630F7
:1009100003178D0000308F00031388220830B200C7
:100920000230B3004A222508AB001830AC00E822A0
:100930000130B200B3004A224A3003178D00003064
:100940008F0003138822A9080319E12C2908083C09
:10095000031CE12C2808043C031DE12C2508AA00F7
:100960000A30AB003F2324087807A5000130B2000D
:100970000230B3004A22523003178D0000308F003E
:10098000031388220830B2000230B3004A2225083F
:10099000AB001830AC00E822A801A0010130B20081
:1009A0000230B3004A22563003178D0000308F000A
:1009B000031388220430AA00FA30B2007E20AA0B6A
:1009C000DC2C4E217808233C031DE92C0C30B100AF
:1009D0005C22932B4E217808413C031D092D0C30DD
:1009E000B1005C2283168610831286140130B20097
:1009F0000230B3004A225A3003178D0000308F00B6
:100A0000031388220230AA009630B2007E20AA0B7F
:100A1000042D4E217808413C0319122D83168610AF
:100A2000831286104E217808423C031D312D0C3074
:100A3000B1005C2283160611831206150130B20044
:100A40000230B3004A22603003178D0000308F005F
:100A5000031388220230AA009630B2007E20AA0B2F
:100A60002C2D4E217808423C03193A2D831606118D
:100A7000831206114E217808413C0319352E4E2170
:100A80007808423C0319352EA3080319352E4E2150
:100A9000F8080319352E0630B2000230B3004A229E
:100AA0002030B1005C2218212308780203188A2D17
:100AB00083168611831286150130B200B3004A22D4
:100AC000663003178D0000308F0003138822073033
:100AD000B2000130B3004A2218217808AA00AB0006
:100AE0001830AC00E8220930B2000130B3004A22CD
:100AF000693003178D0000308F00031388220F30F8
:100B0000B2000130B3004A222308AB001830AC0019
:100B1000E822C32D1821780823020318C32DA30847
:100B20000319C32D83168611831286110130B2007A
:100B3000B3004A226C3003178D0000308F0003137E
:100B400088220730B2000130B3004A221821780809
:100B5000AA00AB001830AC00E8220930B200013026
:100B6000B3004A226F3003178D0000308F0003134B
:100B700088220F30B2000130B3004A222308AB00B4
:100B80001830AC00E8223321250878020318FB2D29
:100B900083160612831206160130B2000230B3002B
:100BA0004A22723003178D0000308F000313882211
:100BB0000730B2000230B3004A2233217808AA007D
:100BC000AB001830AC00E8220930B2000230B300AC
:100BD0004A22753003178D0000308F0003138822DE
:100BE0000F30B2000230B3004A222508AB001830A3
:100BF000AC00E822352E3321780825020318352E63
:100C0000A5080319352E8316061283120612013029
:100C1000B2000230B3004A22783003178D00003052
:100C20008F00031388220730B2000230B3004A223B
:100C300033217808AA00AB001830AC00E822093054
:100C4000B2000230B3004A227B3003178D0000301F
:100C50008F00031388220F30B2000230B3004A2203
:100C60002508AB001830AC00E8223D2E0C30B10056
:100C70005C2283168601831286018A110A126E2E67
:100C8000FF30A60083161F149F141F159F11831396
:100C90001F30830501308600F03087008312A600E4
:100CA0000030831688003F30850000308312A60094
:100CB00083168701831287018316860183128601BA
:100CC0001F139F1783169F1783121F1483161F105D
:100CD0009F101F119F118312E528642B6D2E630056
:02400E00733FFE
:00000001FF
;PIC16F877
;CRC=43C5  CREATED="26-Oca-24 00:08"
